:020000040800F2
:1000000000080020851C00080509000807090008F1
:1000100000000000000000000000000000000000E0
:1000200000000000000000000000000009090008B6
:1000300000000000000000000B0900080D09000886
:10004000051D0008051D0008051D0008051D000808
:10005000051D0008051D0008051D0008051D0008F8
:1000600000000000051D0008051D0008051D000812
:10007000051D0008051D000800000000051D000802
:100080000000000000000000000000000000000070
:10009000051D00080000000000000000051D00080C
:1000A00000000000051D0008000000000000000026
:1000B000051D0008051D00080000000000000000EC
:1000C0000448054B10B5834203D0044B002B00D0ED
:1000D000984710BD0C0000200C000020000000001C
:1000E00006480749091A8B10C90FC91810B54910DD
:1000F00003D0044B002B00D0984710BD0C0000200B
:100100000C0000200000000010B5074C2378002BE5
:1001100009D1FFF7D5FF054B002B02D0044800E0C2
:1001200000BF0123237010BD0C0000200000000060
:10013000081D0008054B10B5002B03D004490548E5
:1001400000E000BFFFF7CCFF10BDC046000000007C
:1001500010000020081D000870B50C4D0C4E761BD9
:10016000B61005D0002408CD01349847A642FAD134
:1001700001F0CAFD074D084E761BB61005D00024CD
:1001800008CD01349847A642FAD170BD941D0008ED
:10019000941D0008941D0008981D0008F0B5050086
:1001A00083074AD0541E002A44D0CEB20300032253
:1001B00002E00135013C3DD301332E701342F8D1EA
:1001C000032C2FD9FF220A40150215432A04154398
:1001D0000F2C35D92700103F3F093E01B4461E00C1
:1001E0001A0010366644156055609560D56010326F
:1001F000B242F8D10F260C2201373F012640DB190D
:100200003700224217D03E1FB608B400A4461A0099
:100210001C1D644420C2A242FCD103240136B60056
:100220009B193C40002C05D0C9B21C191970013330
:100230009C42FBD1F0BD3400F4E714000300BFE79B
:100240002700E0E7002243088B4274D303098B4266
:100250005FD3030A8B4244D3030B8B4228D3030C96
:100260008B420DD3FF22090212BA030C8B4202D338
:100270001212090265D0030B8B4219D300E0090A60
:10028000C30B8B4201D3CB03C01A5241830B8B4269
:1002900001D38B03C01A5241430B8B4201D34B0352
:1002A000C01A5241030B8B4201D30B03C01A5241B7
:1002B000C30A8B4201D3CB02C01A5241830A8B423C
:1002C00001D38B02C01A5241430A8B4201D34B0225
:1002D000C01A5241030A8B4201D30B02C01A524189
:1002E000CDD2C3098B4201D3CB01C01A524183093D
:1002F0008B4201D38B01C01A524143098B4201D377
:100300004B01C01A524103098B4201D30B01C01AA1
:100310005241C3088B4201D3CB00C01A524183081B
:100320008B4201D38B00C01A524143088B4201D348
:100330004B00C01A5241411A00D2014652411046A8
:100340007047FFE701B5002000F006F802BDC04687
:100350000029F7D076E770477047C046002B11D1CF
:10036000002A0FD1002900D1002802D00021C94362
:10037000081C07B4024802A14018029003BDC04601
:10038000D9FFFFFF03B4684601B5029800F02EF8CC
:10039000019B9E4602B00CBC7047C046F0B51504E8
:1003A0002D0C0F0001002E00C64684460004140CDC
:1003B000000C090C46434D43604361434019340C23
:1003C000241800B5A54203D980204002804641444C
:1003D000250C6D18614659437A43300449192404A9
:1003E000000C2018891804BC9046F0BDF0B55746A3
:1003F0004E464546DE46E0B504000D00924699465D
:1004000083B08B4230D82DD04946504600F0BAF820
:1004100029000600200000F0B5F8331A9846203B6A
:100420009B4633D45A465346934042461F00534698
:1004300093401E00AF423AD8AF4200D178E05B460D
:10044000A41BBD41002B00DA75E0002200230092BE
:10045000019301235A46934001930123424693405E
:10046000009328E08242CFD900220023009201931A
:100470000C9B002B01D01C605D600098019903B0BB
:100480003CBC90469946A246AB46F0BD424620236E
:100490009B1A5246DA40414613004A468A401700EA
:1004A00042461F43534693401E00AF42C4D9002228
:1004B0000023009201934346002BD9D0FB0772081A
:1004C0001A4346467B080EE0AB4201D1A2420CD84B
:1004D000A41A9D41012024196D410021013E2418D8
:1004E0004D41002E06D0AB42EED9013E24196D419C
:1004F000002EF8D1009801995B4600196941002B44
:1005000024DB2B005A464446D3402A00E2401C001C
:100510005B461500002B2ADB26009E403300260098
:100520004746BE403200801A9941009001919FE7F2
:10053000A342BCD883E74246202300219B1A002215
:10054000009101920122DA40019286E7424620237F
:100550009B1A2A0046469A402300F3404446134320
:100560002A00E2401C005B461500002BD4DA42460C
:100570002F002023260097409B1ADE403B00334388
:10058000CDE7C04610B5002903D100F007F82030B0
:1005900002E0081C00F002F810BDC0461C21012337
:1005A0001B04984201D3000C10391B0A984201D356
:1005B000000A08391B09984201D30009043902A234
:1005C000105C40187047C04604030202010101019B
:1005D000000000000000000072B6FEE700B599B010
:1005E000342200210BA8FFF7D9FD1422002106A810
:1005F000FFF7D4FD182200216846FFF7CFFD1E4902
:100600000B681E4A1A4080231B0113430B60022310
:100610000B9301220E920F320F9214930023159325
:100620008023DB0216938023DB0317930BA800F0D3
:10063000E1FA002819D10F2306930C3B07930023FE
:10064000089309930A93012106A800F061FD002890
:100650000DD10C230093002303930493684600F00C
:1006600069FE002805D119B000BDFFF7B5FFFFF7FF
:10067000B3FFFFF7B1FFC04600700040FFE7FFFF88
:1006800010B500F039FAFFF7A9FF00F007F800F005
:100690003BF800F099F800F0E3F8FEE770B588B099
:1006A0001422002103A8FFF779FD154BDA6A012512
:1006B0002A43DA62DA6A2A400192019ADA6A022649
:1006C0003243DA62DB6A33400293029B0D4C012213
:1006D0000221200000F0BAFF03960495002505953D
:1006E0000323069303A9200000F0F2FE782303936E
:1006F0000495059503A9200000F0EAFE08B070BD3E
:10070000001002400004005010B51448144B036060
:10071000144B4360002383600122C2600361436184
:100720008361C361036200F003F900280CD100214A
:100730000A4800F063F9002809D10021074800F0B9
:1007400089F9002806D110BDFFF746FFEFE7FFF754
:1007500043FFF2E7FFF740FFF5E7C046280000201F
:1007600000540040BB7C700010B586B00400142219
:10077000002101A8FFF712FD2268114B9A4201D017
:1007800006B010BD0F4CE26A01231A43E262E26A2E
:100790001A400092009AC022D200019212220292C4
:1007A00003930F3A04920593A02001A9C00500F01D
:1007B0008FFEA26B80239B031343A363E0E7C04635
:1007C000005400400010024010B50B480B4B036072
:1007D000E1235B02436000238360C36003610C225A
:1007E000426183610362436201F0B6F9002800D1DF
:1007F00010BDFFF7F1FEFBE7740000200048004049
:1008000010B586B004001422002101A8FFF7C6FC31
:100810002268114B9A4201D006B010BD0F4B996B64
:100820008022D2020A439A63D96A01221143D96213
:10083000DB6A1A400092009B03230193022202927A
:1008400000220392049303330593A02001A9C0055D
:1008500000F03EFEE0E7C0460048004000100240C5
:1008600010B50E480E4B036082235B0043600023EB
:100870008360C36003614361802292008261C3612F
:100880000362436283620733C36201F09BF900286D
:1008900000D110BDFFF7A0FEFBE7C046F800002026
:1008A0000030014010B586B004001422002101A8D8
:1008B000FFF774FC2268114B9A4201D006B010BDBC
:1008C0000F4B596B802252010A435A63D96A0122A5
:1008D0001143D962DB6A1A400092009BE023019326
:1008E000DE3B029300230393032204920593A0208E
:1008F00001A9C00500F0ECFDE0E7C0460030014072
:1009000000100240FEE7FEE77047704710B500F0A8
:1009100007F910BD054B5A6B01210A435A63996BC5
:10092000802252050A439A637047C0460010024075
:1009300010B5041E59D04123C35C002B43D0412382
:100940002422E2542268136801218B431360226839
:10095000274B61680B4013612268936825490B405F
:100960009360E368012B34D0226884231B02A168C2
:100970000B439360E368022B32D0226851681E4B10
:100980000B4353602268D3681A490B40D360236934
:1009900062691343A269120221681343CB60226883
:1009A000E369216A0B4313602268136801210B433A
:1009B00013600023636441221F31A1542363013279
:1009C000A354002010BD40330022C254FFF7CCFED8
:1009D000B5E7226880231B02A1680B439360C9E737
:1009E0002368802212015A60C7E70120EAE7C04667
:1009F000FFFFFFF0FF7FFFFF00800002F0B5412303
:100A0000C35C202B20D12033C35C012B1ED040249B
:100A10000122025541252423435506683368934338
:100A20003360066833680A4F3B40336006683368BA
:100A30001943316001680B6813430B602023435551
:100A4000002303550020F0BD0220FCE70220FAE756
:100A5000FFEFFFFFF0B54123C35C202B1ED12033F5
:100A6000C35C012B1CD040240122025541252423C4
:100A70004355066833689343336006683368094F0B
:100A80003B4009021943316001680B6813430B6056
:100A900020234355002303550020F0BD0220FCE72E
:100AA0000220FAE7FFF0FFFF10B504000F4B1978A2
:100AB000FA208000FFF7C6FB01000D4B1868FFF716
:100AC000C1FB00F0F9FD00280DD1032C01D9012054
:100AD0000AE0013000222100404200F0BDFD054B3C
:100AE0001C60002000E0012010BDC0460000002076
:100AF000080000200400002010B5084A13684021B7
:100B00000B4313600020FFF7CFFF041E02D0012427
:100B1000200010BDFFF7FEFEFAE7C04600200240AD
:100B2000034A1168034B1B785B1813607047C0467B
:100B30005001002000000020014B18687047C0469B
:100B40005001002010B5264BDA680C231340082B07
:100B500042D00C2B11D0042B09D0214B5A68520BD8
:100B600007231340013380200002984010BD1C4B26
:100B70001B68DB0632D51B48F8E7910C0F230B40AE
:100B80001949C85C920D03231A40541C144BDB68AE
:100B9000DB0309D5154A00230021FFF7FFFB2200E4
:100BA0000023FFF7DBFBE1E70D4B1B68DB0609D5F4
:100BB0000C4A00230021FFF7F1FB22000023FFF77E
:100BC000CDFBD3E70A4A00230021FFF7E7FB220011
:100BD0000023FFF7C3FBC9E70448C7E70448C5E79C
:100BE0000010024000093D00801D000800127A003C
:100BF0000024F400F0B583B0041E00D165E2C54BBB
:100C0000DA680C251540DE6880235B021E4003680D
:100C1000DB0736D5082D2CD00C2D28D06368802218
:100C20005202934255D0A022D202934258D0B94BDF
:100C30001A68B9490A401A601A68802149020A40B4
:100C40000192019A1A68B5490A401A606368002B3C
:100C500052D0FFF771FF0700AE4B1B689B0310D407
:100C6000FFF76AFFC01B6428F6D903202EE2002E8E
:100C7000D4D0A84B1B689B0303D56368002B00D11D
:100C800026E223689B076DD5E3689A0605D5A1483F
:100C9000026820210A4302608B43042D3CD00C2DB6
:100CA00038D0002B00D1B0E09A490A68092082436D
:100CB00013430B60FFF740FF0600964B1B685B0772
:100CC00000D599E0FFF738FF801B0228F5D90320F3
:100CD000FCE1904A116880235B020B431360B5E787
:100CE0008C4B19688022D2020A431A60196880224C
:100CF00052020A431A60A9E7FFF71EFF0700854B5F
:100D00001B689B03BDD5FFF717FFC01B6428F6D9EE
:100D10000320DBE1002EC4D17E4A1268520702D5BF
:100D2000002B00D1D6E17B4E72687D490A402169D3
:100D300009020A437260326809218A43134333600F
:100D4000FFF700FFF26812090F231340754AD35CC6
:100D5000D840754B1860754B1868FFF7A5FE002842
:100D600000D0B3E12368DB062DD5002D60D1694B9F
:100D70001B689B0503D5A369002B00D1ACE1654A34
:100D800053686B490B40216A0B43536053681B0245
:100D90001B0AE16909060B435360236A590B0131B1
:100DA00080231B028B40D16809090F220A405D494C
:100DB0008A5CD3405C4A13605C4B1868FFF774FE92
:100DC000002800D082E123681B077DD56369002BD2
:100DD00067D0504A136D01210B431365FFF7ACFE3A
:100DE00006004C4B1B6D9B076ED4FFF7A5FE801BC6
:100DF0000228F6D9032069E146494B68484A134066
:100E00002269120213434B60ACE7424A1368012186
:100E10008B431360FFF790FE06003E4B1B685B0799
:100E2000A0D5FFF789FE801B0228F6D903204DE1EB
:100E3000A369002B22D0374A116880235B000B4343
:100E40001360FFF779FE0600324B1B689B0506D442
:100E5000FFF772FE801B0228F6D9032036E12D4AE7
:100E6000536833490B40216A0B43536053681B029C
:100E70001B0AE16909060B435360A4E7254A13687E
:100E80002C490B401360FFF757FE0600214B1B68EF
:100E90009B0598D5FFF750FE801B0228F6D903204A
:100EA00014E11C4A136D01218B431365FFF744FEC7
:100EB0000600184B1B6D9B0706D5FFF73DFE801BF8
:100EC0000228F6D9032001E123685B0700D48EE0F5
:100ED000104B9B6BDB001BD40E4A916B80235B0590
:100EE0000B4393630126144B1B68DB0528D5A368CD
:100EF00080225200934237D0002B4DD1054B1A6D02
:100F00000C490A401A651A6D0C490A401A6531E00D
:100F10000026E8E700100240FFFFFEFFFFFFFBFF97
:100F2000FFE0FFFF681D000808000020040000200B
:100F3000FF1FFFFFFFFEFFFF00700040FFFBFFFFF2
:100F40006B4A116880235B000B431360FFF7F4FDCD
:100F50000700674B1B68DB05C9D4FFF7EDFDC01B1D
:100F60006428F6D90320B1E0624A116D80235B004A
:100F70000B431365A368002B28D0FFF7DDFD0700A6
:100F80005C4B1B6D9B0530D4FFF7D6FDC01B5A4B45
:100F90009842F5D9032099E0A022D200934209D0CB
:100FA000544B1A6D55490A401A651A6D54490A4046
:100FB0001A65DFE74F4B196D013AFF3A0A431A658C
:100FC000196D802252000A431A65D3E7FFF7B4FD7A
:100FD0000700484B1B6D9B0507D5FFF7ADFDC01BF8
:100FE000454B9842F5D9032070E0012E1AD0636A70
:100FF000002B00D172E00C2D4FD0022B18D03D4AAF
:10100000136840490B401360FFF796FD0400394B0D
:101010001B689B013FD5FFF78FFD001B0228F6D907
:10102000032053E0334A936B37490B409363DEE769
:10103000304A136833490B401360FFF77DFD05000C
:101040002C4B1B689B0106D5FFF776FD401B022841
:10105000F6D903203AE02749CB682C4A1340A26A0C
:10106000E06A0243206B02431343CB600A6880238B
:101070005B0413430B60FFF75FFD04001D4B1B680F
:101080009B0106D4FFF758FD001B0228F6D9032068
:101090001CE000201AE0002018E0012B20D0154BA6
:1010A000DA6880235B021340A16A8B421AD1F023D5
:1010B0009B031340E16A8B4216D1C0231B041A40E4
:1010C000236B9A4212D1002000E0012003B0F0BD52
:1010D0000120FBE70120F9E70120F7E70020F5E711
:1010E0000120F3E70120F1E70120EFE70120EDE720
:1010F000007000400010024088130000FFFEFFFF58
:10110000FFFBFFFFFFFFFFFEFFFFFFEFFFFF02FF01
:1011100070B505000C00002800D1D1E06A4B1A68B8
:10112000012313408B4219D32B689B0706D5674ACE
:10113000D368F0218B43A9680B43D3602B68DB078E
:101140007BD56B68022B20D0032B40D0012B44D0E1
:101150005E4A126892051DD4012099E05A4A13682C
:1011600001218B4323431360FFF7E6FC0600564B37
:101170001A6801231340A342D6D0FFF7DDFC801B81
:10118000534A9042F3D9032082E0504A12689203F6
:1011900000D497E04D49CA68032082431343CB60D3
:1011A000FFF7CAFC06006B68022B1CD0032B28D06B
:1011B000012B34D0454BDB680C221A423DD0FFF79F
:1011C000BBFC801B424B9842F4D9032060E03F4AAD
:1011D00012689201DED401205AE03C4A126852079C
:1011E000D8D4012054E0394BDA680C231340082B83
:1011F00023D0FFF7A1FC801B354A9042F3D903208E
:1012000046E0324BDA680C2313400C2B15D0FFF765
:1012100093FC801B2E4B9842F3D9032038E02B4BD4
:10122000DA680C231340042B07D0FFF785FC801BE2
:10123000274B9842F3D903202AE0234B1A68012355
:101240001340A34225D82B685B0706D51F4AD368F5
:1012500020490B40E9680B43D3602B681B0707D577
:101260001A49CB681C4A13402A69D2001343CB6049
:10127000FFF768FC154BDA6812090F231340174A71
:10128000D35CD840164B1860164B1868FFF70CFC5F
:1012900070BD0D4A136801218B4323431360FFF790
:1012A0004BFC0600084B1A6801231340A342CAD026
:1012B000FFF742FC801B064B9842F3D90320E7E777
:1012C0000120E5E70120E3E7002002400010024092
:1012D00088130000FFF8FFFFFFC7FFFF681D00082D
:1012E0000800002004000020014B18687047C04629
:1012F0000800002010B5FFF7F7FF044BDA68120A68
:1013000007231340024AD35CD84010BD00100240AE
:10131000781D000810B5FFF7E7FF044BDA68D20A22
:1013200007231340024AD35CD84010BD001002408E
:10133000781D000870B5040003689B064CD55A4B15
:101340009B6BDB0072D4584A916B80235B050B4387
:1013500093630125554B1B68DB0569D5524B196812
:10136000C0239B031940626813408B4205D0C02301
:101370009B021100194099426ED04B4B196DC0234E
:101380009B0208001840194215D01A40824212D020
:1013900023689B060FD5444B186D454A02401E6DCD
:1013A0008021090331431965196D424E3140196599
:1013B0001A65C30556D46368C02292021900114011
:1013C00091425ED038490B6DC022920260680240A3
:1013D00013430B65012D5ED023689B0706D5324A67
:1013E000D36C0C218B43A1680B43D36423685B0748
:1013F00006D52D4AD36C30490B40E1680B43D364CA
:1014000023681B0706D5284AD36C2C490B40216959
:101410000B43D36423681B0643D5234AD36C284966
:101420000B4061690B43D36400203BE0002591E74A
:101430001E4A116880235B000B431360FFF77CFB9F
:1014400006001A4B1B68DB0588D4FFF775FB801B71
:101450006428F6D9032025E0134B1B689B038CD529
:1014600001201FE0FFF768FB06000F4B1B6D9B057B
:10147000A1D4FFF761FB801B124B9842F5D90320E2
:1014800010E009490A6810480240C0208003034068
:1014900013430B6096E70A008B6B0C490B40936378
:1014A0009AE7002070BDC046001002400070004066
:1014B000FFFFFCFFFFFFF7FFFFF3FFFFFFCFFFFF83
:1014C000FFFFF3FF88130000FFFFCFFFFFFFFFEFD9
:1014D000F0B5CE46474680B500238CE084685F00B7
:1014E0000326BE40B4432600CC68BC40344384602D
:1014F000446894434A681609012232409A402243C4
:101500004260C4685F000326BE40F2439446B44381
:1015100026008C68BC403443C4604A68022A01D06B
:10152000122A10D1DE080836B2009146145807225C
:101530001A4092000F269640B4430E69964032003E
:1015400022434C46225004686246144003224E68EF
:101550003240BA40224302604A68D2004AD5364C33
:10156000626B0126324362639A08941CA400334ED6
:10157000A75903241C40A4000F26A640B743A02669
:10158000F605B0424FD02E4EB0424ED02D4EB04256
:1015900047D00626A64034003C4302329200274E34
:1015A0009451294A1468EA432600AE434F68FF036A
:1015B00001D52C432600244C266064682600164082
:1015C0004F68BF0301D52C4326001F4C6660A468FA
:1015D000260016404F68FF0201D52C4326001A4C06
:1015E000A660E46822404E68B60201D52A00224374
:1015F000154CE26001330C682200DA4017D001225A
:101600009A40250015401442F4D04C68661E012E05
:1016100000D863E7112C00D160E7122C00D070E7EE
:101620005CE70226B6E70026B4E70126B2E70CBC69
:1016300090469946F0BDC0460010024000000140AF
:10164000000400500008005000040140002A01D0AE
:10165000816170478162FCE770B5002811DB830867
:10166000134EC0339B009D5903242040C000FF222D
:1016700014008440A54389010A4082402A439A51BC
:1016800070BD0F230340083B9B0806339B00094AAB
:10169000944663445C6803221040C000FC3215008D
:1016A0008540AC4389010A40824022435A60E7E703
:1016B00000E100E000ED00E0013880235B04984287
:1016C0000FD2094A50600948036A1B021B0AC02155
:1016D00009060B4303620023936007331360002065
:1016E00070470120FCE7C04610E000E000ED00E09C
:1016F000D0B504000168836802691343426913434B
:10170000C26913430A688748024013430B6022688A
:10171000536885490B40E1680B435360A169226817
:10172000824B9A4201D0236A194393688048034050
:101730000B43936022687F4B9A4212D07B4B9A42B4
:1017400020D0102379498A4242D0E06980221202D7
:1017500090427AD0082B00D9DEE09B00764AD3581D
:101760009F46764BD96C0C230B40082B22D005D812
:10177000002B21D0042BE5D01023E3E70C2B1DD147
:10178000043BDFE76D4BDB6CC02109010B4080217E
:1017900009018B4214D007D8002B13D08021C90037
:1017A0008B4211D10423CDE7C02109018B420DD119
:1017B0000823C7E70223C5E70023C3E71023C1E7D7
:1017C0000223BFE70023BDE71023BBE71023B9E7DF
:1017D000042B35D00BD8002B2CD0022B05D1574B26
:1017E0001B68DB062FD4564805E0012073E0082B68
:1017F0001ED180200002626853009B18834200D9EA
:101800007EE01303834200D27CE0070E06025008FC
:101810000021801979410023FEF7A0FD494BC21831
:10182000494B9A4200D96FE02368D860002052E00B
:10183000012050E0FFF75EFD0028DCD100204AE0E7
:10184000FFF780F9F8E74148D5E7082B5ED89B0001
:101850003F4AD3589F46FFF74DFD002858D040001F
:1018600063685B08C0186168FEF7ECFC83B2000493
:10187000000C01001039374A91424BD80F22934394
:101880001A0040080723184010432368D86000203E
:1018900021E0FFF73FFDE0E7284B1B68DB0604D49F
:1018A0002748DCE7FFF74EF9D7E72848D7E7FFF7E7
:1018B00021FD002832D063685B0818186168FEF7C4
:1018C000C1FC0004000C0200103A224B9A4227D8B7
:1018D0002368D860002000236366A366D0BDFFF7AD
:1018E00019FDE6E7154B1B68DB0607D41448E2E751
:1018F000FFF728F9DDE780200002DCE71348DAE78C
:101900000120E8E70120E6E70120E4E70120E2E723
:101910000020E0E70120DEE70120DCE70020DAE735
:101920000120D8E7F369FFEFFFCFFFFF0048004039
:10193000FFF4FFFF00440040201D0008001002409B
:101940000024F40000FDFFFFFFFC0F0000093D0034
:10195000441D0008EFFF0000436ADB0706D502685C
:1019600053682C490B40816A0B435360436A9B07C1
:1019700006D50268536828490B40C16A0B4353607F
:10198000436A5B0706D50268536824490B40016B24
:101990000B435360436A1B0706D50268536820490E
:1019A0000B40416B0B435360436ADB0606D502686C
:1019B00093681C490B40816B0B439360436A9B0601
:1019C00006D50268936818490B40C16B0B439360BE
:1019D000436A5B060BD50268536814490B40016CDF
:1019E0000B43536080235B03026C9A420AD0436A24
:1019F0001B0606D5026853680D490B40816C0B43EA
:101A000053607047026853680A490B40416C0B43AE
:101A10005360ECE7FFFFFDFFFFFFFEFFFFFFFBFF53
:101A2000FF7FFFFFFFEFFFFFFFDFFFFFFFFFEFFF86
:101A3000FFFFF7FFFFFF9FFFF8B5CE46474680B593
:101A400006000D0017009946089B98463368DC692C
:101A50002C40641B63425C41BC423DD14346013390
:101A6000F4D0FFF769F84B46C01A404521D84346E9
:101A7000002B1ED033681A685207E7D5DA691205C1
:101A8000E4D5802212011A623268136815490B40AE
:101A9000136032689368A331FF318B439360202336
:101AA000B367F3678022B35054330022F25403200B
:101AB00013E0326813680B490B4013603268936877
:101AC000A331FF318B4393602023B367F367543313
:101AD0000022F254032000E000200CBC90469946FE
:101AE000F8BDC0465FFEFFFF30B583B00400802321
:101AF0000022C250FFF720F8050023681B681B076F
:101B00000DD423681B685B0716D42023A367E36703
:101B1000002323667422A354002003B030BD80212B
:101B20000C4B00930300002289032000FFF784FF81
:101B30000028E6D00320F0E78021064B00932B001D
:101B40000022C9032000FFF777FF0028DDD0032023
:101B5000E3E7C046FFFFFF0110B5041E2ED0836FE0
:101B6000002B21D02423A3672268136801218B4313
:101B700013602000FFF7BCFD012814D0636A002B1E
:101B800018D1226853680E490B405360226893684D
:101B90002A218B4393602268136829390B43136011
:101BA0002000FFF7A1FF10BD74330022C254FEF7DE
:101BB00027FED7E72000FFF7CFFEE2E70120F2E79C
:101BC000FFB7FFFF70B5041E59D0436A002B07D141
:101BD0000533FF3342689A4205D00023C36102E017
:101BE0000023036143610023A3625133E35C002BB4
:101BF0003ED051220221A154206803684025AB4306
:101C0000036082235B006068034084200002A568B3
:101C10002840034380200001E568284003432069F1
:101C200001400B430120616901400B438021890081
:101C3000A56929400B433821E56929400B438021E0
:101C4000256A29400B4380218901A56A294025681E
:101C50000B432B60618B04230B401021656A2940E4
:101C600025680B436B6000236365A054002070BDA2
:101C700050330022E2542000FEF714FEB9E70120A1
:101C8000F5E770471348854613480168090E134A63
:101C9000914205D11248134901601348134901606C
:101CA00013481449144A002302E0D458C4500433A2
:101CB000C4188C42F9D3114A114C002301E013607F
:101CC0000432A242FBD3FFF7DCFFFEF745FAFEF732
:101CD000D7FCFEE700080020040000001F00000001
:101CE000341002400100000000000140000000002C
:101CF000000000200C0000209C1D00080C000020AB
:101D000054010020FEE70000F8B5C046F8BC08BC4E
:101D10009E467047F8B5C046F8BC08BC9E46704762
:101D2000AE180008DE180008E418000818190008AA
:101D3000F0180008181900081819000818190008E8
:101D4000F61800085618000892180008981800089D
:101D50000C190008A41800080C1900080C19000838
:101D60000C1900085E1800080000000000000000C8
:101D70000102030406070809000000000102030431
:0C1D8000030406080C10182030000000BE
:081D8C0060E6FF7F010000008A
:041D9400350100080D
:041D98000901000835
:0C1D9C0001000000040000000000200016
:0400000508001C854E
:00000001FF
